{
  "_format": "hh-sol-artifact-1",
  "contractName": "CampaignFactory",
  "sourceName": "contracts/Campaigns.sol",
  "abi": [
    {
      "inputs": [
        {
          "internalType": "uint256",
          "name": "minimum",
          "type": "uint256"
        },
        {
          "internalType": "string",
          "name": "name",
          "type": "string"
        },
        {
          "internalType": "string",
          "name": "description",
          "type": "string"
        },
        {
          "internalType": "string",
          "name": "image",
          "type": "string"
        },
        {
          "internalType": "uint256",
          "name": "target",
          "type": "uint256"
        }
      ],
      "name": "createCampaign",
      "outputs": [],
      "stateMutability": "nonpayable",
      "type": "function"
    },
    {
      "inputs": [
        {
          "internalType": "uint256",
          "name": "",
          "type": "uint256"
        }
      ],
      "name": "deployedCampaigns",
      "outputs": [
        {
          "internalType": "address",
          "name": "",
          "type": "address"
        }
      ],
      "stateMutability": "view",
      "type": "function"
    },
    {
      "inputs": [],
      "name": "getDeployedCampaigns",
      "outputs": [
        {
          "internalType": "address[]",
          "name": "",
          "type": "address[]"
        }
      ],
      "stateMutability": "view",
      "type": "function"
    }
  ],
  "bytecode": "0x608060405234801561001057600080fd5b50611830806100206000396000f3fe608060405234801561001057600080fd5b50600436106100415760003560e01c8063339d50a5146100465780634acb9d4f1461006f578063d4ddd71a14610084575b600080fd5b610059610054366004610248565b610099565b6040516100669190610341565b60405180910390f35b6100776100c3565b6040516100669190610355565b610097610092366004610260565b610125565b005b600081815481106100a957600080fd5b6000918252602090912001546001600160a01b0316905081565b6060600080548060200260200160405190810160405280929190818152602001828054801561011b57602002820191906000526020600020905b81546001600160a01b031681526001909101906020018083116100fd575b5050505050905090565b6000853386868686604051610139906101ba565b610148969594939291906103a2565b604051809103906000f080158015610164573d6000803e3d6000fd5b50600080546001810182559080527f290decd9548b62a8d60345a988386fc84ba6bc95484008f6362f93160ef3e5630180546001600160a01b0319166001600160a01b0392909216919091179055505050505050565b6113de8061041d83390190565b600082601f8301126101d7578081fd5b813567ffffffffffffffff808211156101f2576101f2610406565b604051601f8301601f19168101602001828111828210171561021657610216610406565b60405282815284830160200186101561022d578384fd5b82602086016020830137918201602001929092529392505050565b600060208284031215610259578081fd5b5035919050565b600080600080600060a08688031215610277578081fd5b85359450602086013567ffffffffffffffff80821115610295578283fd5b6102a189838a016101c7565b955060408801359150808211156102b6578283fd5b6102c289838a016101c7565b945060608801359150808211156102d7578283fd5b506102e4888289016101c7565b95989497509295608001359392505050565b60008151808452815b8181101561031b576020818501810151868301820152016102ff565b8181111561032c5782602083870101525b50601f01601f19169290920160200192915050565b6001600160a01b0391909116815260200190565b6020808252825182820181905260009190848201906040850190845b818110156103965783516001600160a01b031683529284019291840191600101610371565b50909695505050505050565b8681526001600160a01b038616602082015260c0604082018190526000906103cc908301876102f6565b82810360608401526103de81876102f6565b905082810360808401526103f281866102f6565b9150508260a0830152979650505050505050565b634e487b7160e01b600052604160045260246000fdfe60806040523480156200001157600080fd5b50604051620013de380380620013de8339810160408190526200003491620001f6565b600180546001600160a01b0319166001600160a01b0387161790556002869055835162000069906003906020870190620000a5565b5082516200007f906004906020860190620000a5565b50815162000095906005906020850190620000a5565b5060065550620003099350505050565b828054620000b390620002b6565b90600052602060002090601f016020900481019282620000d7576000855562000122565b82601f10620000f257805160ff191683800117855562000122565b8280016001018555821562000122579182015b828111156200012257825182559160200191906001019062000105565b506200013092915062000134565b5090565b5b8082111562000130576000815560010162000135565b600082601f8301126200015c578081fd5b81516001600160401b0380821115620001795762000179620002f3565b6040516020601f8401601f1916820181018381118382101715620001a157620001a1620002f3565b6040528382528584018101871015620001b8578485fd5b8492505b83831015620001db5785830181015182840182015291820191620001bc565b83831115620001ec57848185840101525b5095945050505050565b60008060008060008060c087890312156200020f578182fd5b865160208801519096506001600160a01b03811681146200022e578283fd5b60408801519095506001600160401b03808211156200024b578384fd5b620002598a838b016200014b565b955060608901519150808211156200026f578384fd5b6200027d8a838b016200014b565b9450608089015191508082111562000293578384fd5b50620002a289828a016200014b565b92505060a087015190509295509295509295565b600281046001821680620002cb57607f821691505b60208210811415620002ed57634e487b7160e01b600052602260045260246000fd5b50919050565b634e487b7160e01b600052604160045260246000fd5b6110c580620003196000396000f3fe60806040526004361061011f5760003560e01c806382fde093116100a0578063b2a87fc311610064578063b2a87fc3146102f1578063d7bb99ba14610306578063d7d1bbdb1461030e578063df79661e1461032e578063f6c3132b1461034e5761011f565b806382fde0931461027d5780638a9cfd551461029257806397654a8c146102b2578063a7f33715146102c7578063aba83150146102dc5761011f565b80634051ddac116100e75780634051ddac146101c8578063481c6a75146101f35780636f2259e2146102155780637e7cd1b31461022a57806381d12c581461024c5761011f565b806303441006146101245780630a1443911461014657806319d40b081461017c57806328f371aa146101915780633410452a146101a6575b600080fd5b34801561013057600080fd5b5061014461013f366004610d4a565b61036e565b005b34801561015257600080fd5b50610166610161366004610c4d565b61050b565b6040516101739190610dc1565b60405180910390f35b34801561018857600080fd5b50610166610520565b34801561019d57600080fd5b50610166610529565b3480156101b257600080fd5b506101bb610532565b6040516101739190610f53565b3480156101d457600080fd5b506101dd610538565b6040516101739a99989796959493929190610f5c565b3480156101ff57600080fd5b50610208610748565b6040516101739190610dad565b34801561022157600080fd5b50610166610757565b34801561023657600080fd5b5061023f610760565b6040516101739190610dcc565b34801561025857600080fd5b5061026c610267366004610d4a565b6107ee565b604051610173959493929190610ddf565b34801561028957600080fd5b506101bb6108cd565b34801561029e57600080fd5b506101446102ad366004610c90565b6108d3565b3480156102be57600080fd5b5061023f61096e565b3480156102d357600080fd5b506101bb61097b565b3480156102e857600080fd5b5061023f610981565b3480156102fd57600080fd5b506101bb61098e565b610144610994565b34801561031a57600080fd5b50610144610329366004610d4a565b610a28565b34801561033a57600080fd5b50610144610349366004610c70565b610b50565b34801561035a57600080fd5b50610144610369366004610c70565b610b7a565b6001546001600160a01b0316331461038557600080fd5b60026008546103949190610fdf565b600082815481106103b557634e487b7160e01b600052603260045260246000fd5b906000526020600020906005020160030154116103d157600080fd5b600081815481106103f257634e487b7160e01b600052603260045260246000fd5b906000526020600020906005020160020160149054906101000a900460ff161561041b57600080fd5b6000818154811061043c57634e487b7160e01b600052603260045260246000fd5b6000918252602082206002600590920201015481546001600160a01b03909116916108fc918490811061047f57634e487b7160e01b600052603260045260246000fd5b9060005260206000209060050201600101549081150290604051600060405180830381858888f193505050501580156104bc573d6000803e3d6000fd5b506001600082815481106104e057634e487b7160e01b600052603260045260246000fd5b906000526020600020906005020160020160146101000a81548160ff02191690831515021790555050565b60076020526000908152604090205460ff1681565b60095460ff1681565b60095460ff1690565b60005490565b6000806000806000606080606060008060025447600080549050600854600160009054906101000a90046001600160a01b0316600360046005600654600960009054906101000a900460ff1684805461059090610fff565b80601f01602080910402602001604051908101604052809291908181526020018280546105bc90610fff565b80156106095780601f106105de57610100808354040283529160200191610609565b820191906000526020600020905b8154815290600101906020018083116105ec57829003601f168201915b5050505050945083805461061c90610fff565b80601f016020809104026020016040519081016040528092919081815260200182805461064890610fff565b80156106955780601f1061066a57610100808354040283529160200191610695565b820191906000526020600020905b81548152906001019060200180831161067857829003601f168201915b505050505093508280546106a890610fff565b80601f01602080910402602001604051908101604052809291908181526020018280546106d490610fff565b80156107215780601f106106f657610100808354040283529160200191610721565b820191906000526020600020905b81548152906001019060200180831161070457829003601f168201915b50505050509250995099509950995099509950995099509950995090919293949596979899565b6001546001600160a01b031681565b60065447111590565b6003805461076d90610fff565b80601f016020809104026020016040519081016040528092919081815260200182805461079990610fff565b80156107e65780601f106107bb576101008083540402835291602001916107e6565b820191906000526020600020905b8154815290600101906020018083116107c957829003601f168201915b505050505081565b600081815481106107fe57600080fd5b906000526020600020906005020160009150905080600001805461082190610fff565b80601f016020809104026020016040519081016040528092919081815260200182805461084d90610fff565b801561089a5780601f1061086f5761010080835404028352916020019161089a565b820191906000526020600020905b81548152906001019060200180831161087d57829003601f168201915b5050505060018301546002840154600390940154929390926001600160a01b0382169250600160a01b90910460ff169085565b60085481565b6001546001600160a01b031633146108ea57600080fd5b60008054600181018255908052835160059091027f290decd9548b62a8d60345a988386fc84ba6bc95484008f6362f93160ef3e56301906109319082906020870190610ba4565b5060018101929092556002820180546001600160a01b0319166001600160a01b03929092169190911760ff60a01b19169055600060039091015550565b6004805461076d90610fff565b60025481565b6005805461076d90610fff565b60065481565b61099c610757565b6109c15760405162461bcd60e51b81526004016109b890610ee5565b60405180910390fd5b600034116109e15760405162461bcd60e51b81526004016109b890610ea2565b3360009081526007602052604090205460ff16610a2657336000908152600760205260408120805460ff191660011790556008805491610a208361103a565b91905055505b565b3360009081526007602052604090205460ff16610a575760405162461bcd60e51b81526004016109b890610e72565b60008181548110610a7857634e487b7160e01b600052603260045260246000fd5b600091825260208083203384526004600590930201919091019052604090205460ff1615610ab85760405162461bcd60e51b81526004016109b890610f1c565b600160008281548110610adb57634e487b7160e01b600052603260045260246000fd5b60009182526020808320338452600592909202909101600401905260408120805460ff191692151592909217909155805482908110610b2a57634e487b7160e01b600052603260045260246000fd5b600091825260208220600360059092020101805491610b488361103a565b919050555050565b6001546001600160a01b03163314610b6757600080fd5b6009805460ff1916911515919091179055565b6001546001600160a01b03163314610b675760405162461bcd60e51b81526004016109b890610e1f565b828054610bb090610fff565b90600052602060002090601f016020900481019282610bd25760008555610c18565b82601f10610beb57805160ff1916838001178555610c18565b82800160010185558215610c18579182015b82811115610c18578251825591602001919060010190610bfd565b50610c24929150610c28565b5090565b5b80821115610c245760008155600101610c29565b8035610c4881611077565b919050565b600060208284031215610c5e578081fd5b8135610c6981611077565b9392505050565b600060208284031215610c81578081fd5b81358015158114610c69578182fd5b600080600060608486031215610ca4578182fd5b833567ffffffffffffffff80821115610cbb578384fd5b818601915086601f830112610cce578384fd5b8135602082821115610ce257610ce2611061565b604051601f8301601f1916810182018481118282101715610d0557610d05611061565b60405282815284830182018a1015610d1b578687fd5b8282860183830137918201810195909552945050509083013590610d4160408501610c3d565b90509250925092565b600060208284031215610d5b578081fd5b5035919050565b60008151808452815b81811015610d8757602081850181015186830182015201610d6b565b81811115610d985782602083870101525b50601f01601f19169290920160200192915050565b6001600160a01b0391909116815260200190565b901515815260200190565b600060208252610c696020830184610d62565b600060a08252610df260a0830188610d62565b6020830196909652506001600160a01b039390931660408401529015156060830152608090910152919050565b60208082526033908201527f4f6e6c7920746865206d616e616765722063616e20617070726f7665206f72206040820152723932b532b1ba103a34329031b0b6b830b4b3b760691b606082015260800190565b60208082526016908201527529b2b73232b9103737ba1030b71030b8383937bb32b960511b604082015260600190565b60208082526023908201527f436f6e747269627574696f6e206d75737420626520677265617465722074686160408201526206e20360ec1b606082015260800190565b6020808252601d908201527f43616d706169676e20676f616c20616c72656164792072656163686564000000604082015260600190565b60208082526018908201527f5265717565737420616c726561647920617070726f7665640000000000000000604082015260600190565b90815260200190565b60006101408c83528b60208401528a604084015289606084015260018060a01b03891660808401528060a0840152610f9681840189610d62565b905082810360c0840152610faa8188610d62565b905082810360e0840152610fbe8187610d62565b61010084019590955250509015156101209091015298975050505050505050565b600082610ffa57634e487b7160e01b81526012600452602481fd5b500490565b60028104600182168061101357607f821691505b6020821081141561103457634e487b7160e01b600052602260045260246000fd5b50919050565b600060001982141561105a57634e487b7160e01b81526011600452602481fd5b5060010190565b634e487b7160e01b600052604160045260246000fd5b6001600160a01b038116811461108c57600080fd5b5056fea26469706673582212205b0eec3f856e697c097a0520132f6e9720396b87eb21ee2fe97d17646a6f311e64736f6c63430008000033a2646970667358221220338e26b10976b4d87705e1b1ad75b5143fe3ec2b061f9414a1e8a7b0d2276ea564736f6c63430008000033",
  "linkReferences": {},
  "deployedLinkReferences": {}
}